:100000000C9434000C9451000C9451000C94510049
:100010000C9451000C9451000C9451000C9451001C
:100020000C9451000C9451000C9451000C9451000C
:100030000C9451000C9451000C9451000C945100FC
:100040000C9451000C9451000C9451000C945100EC
:100050000C9451000C9451000C9451000C945100DC
:100060000C9451000C94510011241FBECFEFD8E026
:10007000DEBFCDBF11E0A0E0B1E0EEE4F2E002C0EF
:1000800005900D92AC31B107D9F721E0ACE1B1E0B8
:1000900001C01D92A032B207E1F70E9471000C94DA
:1000A00025010C94000021E030E06130710581F001
:1000B0006115710559F061507109A901489F9001BE
:1000C000499F300D589F300D1124EFCF81E090E013
:1000D000AC01249FC001259F900D349F900D1124E9
:1000E00008958CEF8AB98FE384B915B8EE24E394B0
:1000F000F12C7CE3D72E10921F0110921E018091EB
:100100001E0190911F01883E9340ACF702E310E07E
:1001100010921D0110921C01C0911C01D0911D0173
:10012000C430D1050CF059C0A0901E01B0901F0141
:10013000BE016F5F7F4F8AE090E00E945300BC01D8
:10014000C5010E94FD005C01BE018AE090E00E94B2
:100150005300BC01C5010E94FD00CC0FDD1FCC5E29
:10016000DE4F79836883FB01EE0FFF1FE050FF4FE6
:100170008081880F880F8BB9E0911C01F0911D01DF
:10018000CF010296970102C0220F331F8A95E2F732
:100190002D25EE0FFF1FEC5EFE4F0190F081E02D4C
:1001A000EE0FFF1FE050FF4F8081918156E0959543
:1001B00087955A95E1F7282B25B98FE19EE40197A1
:1001C000F1F700C0000080911C0190911D01019683
:1001D00090931D0180931C019FCF015011090115BF
:1001E000110509F095CF80911E0190911F01019694
:1001F00090931F0180931E0182CF97FB072E16F468
:10020000009407D077FD09D00E94110107FC05D0AA
:100210003EF4909581959F4F0895709561957F4F1D
:100220000895AA1BBB1B51E107C0AA1FBB1FA6173D
:10023000B70710F0A61BB70B881F991F5A95A9F78F
:0E02400080959095BC01CD010895F894FFCFF4
:10024E00DD0041007C007500E100B500BD004500F9
:0C025E00FD00F500010002000300040098
:00000001FF
