:100000000C9434000C9446000C9446000C9446006A
:100010000C9446000C9446000C9446000C94460048
:100020000C9446000C9446000C9446000C94460038
:100030000C9446000C9446000C9446000C94460028
:100040000C9446000C9446000C9446000C94460018
:100050000C9446000C9446000C9446000C94460008
:100060000C9446000C94460011241FBECFEFD8E03C
:10007000DEBFCDBF21E0A0E0B1E001C01D92A23003
:10008000B207E1F70E9448000C9489000C9400002C
:1000900080E48AB983EA84BD81E085BD2FEF30E03A
:1000A00010920101109200018091000190910101D4
:1000B0008F3F910509F08CF487BD8FE493EC019795
:1000C000F1F700C0000080910001909101010196BC
:1000D0009093010180930001E7CF309301012093B9
:1000E0000001809100019091010118161906C4F6D3
:1000F00087BD8FE493EC0197F1F700C00000809179
:1001000000019091010101979093010180930001FA
:06011000E8CFF894FFCFD8
:00000001FF
